:1040000000800020F9410000E1410000E141000092
:1040100000000000000000000000000000000000A0
:10402000000000000000000000000000E14100006E
:104030000000000000000000E14100004D420000CF
:10404000E1410000E1410000E1410000E1410000E8
:10405000E1410000E1410000E1410000E5410000D4
:10406000E14100002D410000E1410000E14100007C
:10407000E1410000E14100003D410000E14100005C
:10408000E1410000E1410000E1410000E1410000A8
:1040900000000000E1410000E1410000E1410000BA
:1040A000E1410000E1410000E1410000E141000088
:1040B0000000000010B5064C2378002B07D1054BFB
:1040C000002B02D0044800E000BF0123237010BD84
:1040D00008010020000000004468000008B5084BFB
:1040E000002B03D00748084900E000BF07480368D9
:1040F000002B03D0064B002B00D0984708BDC046CC
:1041000000000000446800000C01002004010020B1
:10411000000000007047000008B5192000F026FAE2
:10412000014B186008BDC0462401002008B50248B4
:1041300000F07CFD08BDC046E401002008B502483F
:1041400000F074FD08BDC04628010020F7B5164FE9
:104150001649381C00F0A8FB1549164800F0A4FBCE
:104160001549164800F0A0FB1549164800F09CFBC5
:104170001549164800F098FB154D03260124281C0C
:10418000144900F091FB391C0096231C0194002275
:10419000114800F039FD0096291C019424222323A4
:1041A0000E4800F031FDF7BDA402002000080042D7
:1041B000000C0042A802002000100042AC020020C7
:1041C00000140042A002002000180042B0020020AB
:1041D000B4020020001C0042E4010020280100205D
:1041E000FEE7000008B5034B1B68002B00D0984782
:1041F00008BDC046B802002038B50F490F4CA14297
:1042000004D100F04FF800F0FBFD0BE00C4D8D42A7
:10421000F7D00023CA18E818A24204D20068043379
:104220001060F7E7FEE79042EBD0064B064A934258
:10423000E7D2002204C3F9E70000002008010020B3
:104240004868000008010020B808002008B500F008
:1042500026F8002801D100F017F808BD014B1860BE
:104260007047C046B802002070B5041E08D0054B48
:104270001D681E1C00F012F833685B1BA342F9D3C3
:1042800070BDC046BC02002008B5034B1A6801325D
:104290001A6000F0CFFA08BDBC0200207047002071
:1042A0007047000070B5494A1E21536802208B43B5
:1042B0000343474953608B69082423438B61454C72
:1042C000454B9C829C8A20439882101CDA68940794
:1042D000FCD5424A012414701478E50704D53F4CFC
:1042E000647864B2002CF7DB01249460547864B2E3
:1042F000002CFBDB3A4D394C6560547864B2002CDD
:10430000FBDB8225354CED016580547864B2002CCE
:10431000FBDB02249C84DC68E606FCD5314D2E4C88
:10432000E562DD682C4CEE06FBD5A58C2E4E3543A0
:10433000A584DD68284CEE06FBD5A58C0226354306
:10434000A584DC682506FCD5234CE4686606F8D510
:10435000DC68E506FCD500249460547864B2002C37
:10436000FBDB224D1D4C656055781C4C6DB2002D59
:10437000FADB1E6A1E4D35401D621D6A8026B5435C
:104380001D620323A3601B4B636053785BB2002B59
:10439000FBDB00230B72184A4B728B72CB72174BEC
:1043A000FF211A60164B174A1B6812685C01D20E77
:1043B000214011439A06520F12020B1C1343124A5A
:1043C0001385436880221343436070BD0040004161
:1043D000000400400C06000000080040000C0040F3
:1043E00001050100B905FF7D040A00000007030074
:1043F000FFFCFFFF03060100006CDC020000002050
:10440000246080002060800000400042314BFA218F
:10441000186810B5890001F059FE2F4B01389842F9
:1044200024D82E4A2E4B5060186AC0210002000A80
:104430000906014319620024072194601160196A7A
:1044400080220902090A12060A431A62254BFC213E
:104450001A6A0A431A62196AFC2292010A431A6212
:10446000196AA022D2020A431A6200E0FEE7201C69
:104470000021013400F0E4F8132CF8D11A4C6378D1
:104480005BB2002BFADB194B6380194B5A7ED209C1
:10449000012AFAD0E422D2009A803F22DA70597EB3
:1044A000134AC9090129FAD0C0235B010020136116
:1044B000907000F02DF863785BB2002BFBDB0D4AA7
:1044C000094B5A800C4BDA79D209012AFAD04122E1
:1044D0005A7010BD00000020FFFFFF0010E000E058
:1044E00000ED00E000040040000C00401E40000011
:1044F000004000422140000000480042914205D0A7
:1045000002D9891AC84001E0511A8840704700005A
:1045100000B5144A517E131CC9090129F9D001388C
:10452000042813D81969104A0A401A615A780F21D1
:104530008A4301F0C1FD030509070300012102E0E0
:10454000032100E002210A435A700AE01169F023B6
:104550001B050B43136153780F218B4302210B433F
:10456000537000BD00400042FFFFFFF010B5041E75
:10457000172C00D81834201C012100F0EBF8182C5F
:104580000CD12A4BDA79D209012AFAD01A78022101
:104590008A431A70DA79D209012AFBD0244B5A7E59
:1045A000D209012AFAD018225443224A1869141950
:1045B000217C1F2290431140021C0A431A61597E3C
:1045C0001B4AC9090129FAD0117802200143117050
:1045D000597E174AC9090129FAD0117B02200143EB
:1045E000117301211176597E114AC9090129FAD0A6
:1045F000117B0220014311731A7ED107FCD50C4AAE
:10460000508B80B2597E0A4AC9090129FAD0117823
:104610000224A14311705A7ED209012AFBD0064B15
:104620001968064B1A68FFF769FF10BD0048004281
:104630000040004218630000040000200800002031
:1046400010B51824021C201C5043274B1818007A60
:1046500040B2013046D0032944D8081C211C01F087
:104660002BFD02331121624398569A18C3011F484B
:1046700052681B189918403102200870012191409E
:1046800059602FE06243985618499A185268C3013E
:104690005B1899184031062008700121914059603B
:1046A00099611FE051435A56104859184B68D2017E
:1046B0001118C81840300624047001209840486042
:1046C0000B49521850600DE0624398569A18C30186
:1046D000064852681B1899184031022008700121C1
:1046E0009140996010BDC04618630000004400412D
:1046F0001044004118235843134AF0B513180824F6
:104700001C5701341FD08256104ED2015D6801241F
:104710009019231C8668AB401E420BD10E1C771EDD
:10472000BE41401934404030A50004780426B4430B
:104730002C430470002903D105495218536002E04C
:10474000024E92199361F0BD1863000000440041CD
:104750001044004118224243F8B52D4D0824AA18F0
:104760001457031C621C50D0481C00240C284CD841
:1047700001F0A2FC071E1E1E1E1E1E1E1E0A0A0A95
:104780000A000124644240E0092902D1181C0021DA
:1047900003E00A2904D1181C0221FFF751FF23E08E
:1047A00000240B2931D1181C0121FFF749FF2CE00F
:1047B00018225343EA185268EB560120141C044097
:1047C0005508DB01002C11D0124C1B195D19303536
:1047D0002E780C010F21314021439A18C9B229705B
:1047E000403213781843107000240EE0094E0F2752
:1047F0009B195D1930352E789A18BE433143C9B2E2
:1048000029704032137818431070201CF8BDC04640
:104810001863000000440041014B18607047C04617
:104820000C000020024B012252421A607047C04621
:104830000C000020154A1368581C25D0013B13605A
:10484000002B21D172B6124A124B04329A4207D879
:10485000BFF34F8F104A114BDA60BFF34F8F11E057
:104860000F4B197DC807FBD5188B2021FF3192080B
:10487000520001431983DA610A4A1A801A7DD1076E
:10488000FCD5E5E7C046FDE77047C0460C000020B8
:1048900000400000030200000400FA0500ED00E003
:1048A0000040004102A5FFFF01607047F7B508AC6A
:1048B000267804689D1E27686C1EA541ECB29207FD
:1048C00005683A4327063A432A60026807252940CB
:1048D0005068B501002C00D05C03294301430C4310
:1048E0005460F7BD30B50368C0251C68AD031205E0
:1048F0002A402243C024A402090421401143196024
:1049000003685A6814435C6030BD036801211A686B
:104910000A431A600268116801231942FBD1D16968
:104920001942F8D17047036802211A680A431A60D5
:104930000268D3699907FCD4704703681A7ED107CF
:1049400002D41A7E9107FCD57047036800225A836F
:1049500070470368187E4007C00F70470368187ED1
:10496000C009704703688022197E52420A431A76B2
:1049700070470368187E0123184070470368188D3C
:10498000C0B2704703681A7E01200242FBD019852D
:104990007047036801219A7D0A439A75704703683E
:1049A00001221A75704700000368224A30B593420D
:1049B00011D0214A934211D0204A934211D0204A6B
:1049C000934211D01F4A934211D01F4A934230D1D3
:1049D0000E2319220DE0092314220AE00A231522CE
:1049E00007E00B23162204E00C23172201E00D231D
:1049F0001822DCB2154901209B08A0409B000860EA
:104A00005B180320C021890004405D58E000FF24AA
:104A10008440A5432C1CC0258540281C20435850A9
:104A20008023DB011A430A4B5A805A7852B2002A7B
:104A3000FBDB30BD00080042000C004200100042C9
:104A40000014004200180042001C004200E100E097
:104A5000000C0040F8B5041C151C0E1C1F1CFFF7B1
:104A6000A3FF201CFFF751FFB1001C220A40690779
:104A70002368090C0A431A60226884239375012E67
:104A80001AD10821012D00D110210C4B794318684F
:104A9000C00001F01BFB236807219A890140D20462
:104AA0004903D20C0A439A8123680004C20C9889F6
:104AB000400B400310439881F8BDC0460000002021
:104AC0000120704708B50368014A1B6A984708BD72
:104AD0001304000010B5041C0069FFF716FF201C2A
:104AE000143001F0AFF9201C5C3001F0ABF910BDBF
:104AF00008B5143001F0B8F908BD10B5041C201C2D
:104B00005C3001F0B1F90028F9D12069FFF715FFF9
:104B100010BD08B55C3001F0ADF908BD70B5051CDD
:104B20001435041C281C01F091F9231CA8331B78B0
:104B3000061CFF2B0AD0281C01F09CF90A2805DD71
:104B4000231CB033B4341B6822681A60301C70BD5B
:104B500008B5143001F098F908BD70B5041C00695F
:104B60000E1CFFF706FF251C5C35002804D0281C0E
:104B700001F07AF900280CD0281C01F08EF90028E9
:104B8000FAD1281C311C01F052F92069FFF701FF0E
:104B900003E02069311CFFF7F5FE012070BD000025
:104BA000F0B585B01D1C0AAB1B78041C00930BAB41
:104BB0001B78161C01930CAB1B780F1C02930DABDA
:104BC0001B78039300234360FA239B0083600D4B03
:104BD00008330360143001F01FF9201C5C3001F031
:104BE0001BF9009A231CA43327619A70019A201C98
:104BF000DA70029A1E701A71039A5D701A7505B008
:104C0000F0BDC0469867000030B585B0041C08A808
:104C1000057809A8007800950190FF200290039084
:104C2000201CFFF7BDFF201C05B030BD38B5041CAB
:104C30000069FFF78EFE002819D02069FFF79EFE5D
:104C4000251C1435011C281C01F0F1F8231CA83385
:104C50001B78FF2B0BD0281C01F00CF9092806DC6F
:104C6000231C221CAC33B4321B6812681A60206902
:104C7000FFF77FFE002811D0251C5C35281C01F0B1
:104C8000F3F8002807D0281C01F0E0F8C1B2206931
:104C9000FFF778FE02E02069FFF781FE2069FFF749
:104CA0005DFE002805D02069FFF75CFE2069FFF754
:104CB0004CFE38BDF023081C1840303843425841A0
:104CC0007047F0231B01194080239B0099420CD0B0
:104CD000C0239B00994206D080235B0005209942A7
:104CE00004D0002002E0072000E0062070470F23D8
:104CF0001940012905D002394B424B410220C01A0C
:104D000000E0002070470000F0B5031C85B003915F
:104D1000A433041C182718783B1C4343344E082145
:104D2000F3185956151CFFF715FD231CA5331878E9
:104D30003B1C43430821F3185956FFF70BFD231C76
:104D4000A7331B78022B0AD1231CB8331878FF280D
:104D500005D047430821F7197956FFF7FBFC271CBC
:104D6000A8373878FF281AD00121FFF769FC3B7873
:104D700018225A43B3561F4FDB01211CAC31D819FE
:104D800008601D49B6185B18211C7268B0310B60B1
:104D9000012191400A1C211CB4310A601A600121D2
:104DA0000A1C039B2069FFF755FE291C201CFFF7F6
:104DB00088FF291C071C201CFFF799FF291C061CD3
:104DC000201CFFF777FF391C0090331C206901225B
:104DD000FFF76CFD231CA7331978013B1A78206973
:104DE000FFF780FD2069FFF79EFD05B0F0BDC046CE
:104DF000186300001844004114440041704700004B
:104E000010B5FFF703FB01F0B1F9FFF7F7FF012041
:104E1000FFF72AFA084C201C00F034FA201C00F09E
:104E2000A9FAFFF777F9FFF777F9044B002BFAD0CF
:104E300000E000BFF7E7C0466F0700200000000059
:104E400010B507230F220240141C00093034092A30
:104E500000DD0734CC54013BF4D210BD70B5C2B2B2
:104E600019495301CB189E68184DC0242E40A40543
:104E700026439E60164E800109683018083258603B
:104E80005201505C0726B0430126304350549E69BE
:104E900035402C439C610F4C5C61505C7024A043F6
:104EA0001024204350549C680B488A1820408024CA
:104EB00064032043986098684021800B80039860C9
:104EC00053790B43537170BD78070020FFFFFF8FAC
:104ED00090050020CC030020FF3F00F038B5041CF3
:104EE00008CC01211A78051C0A431A708022201C64
:104EF0000021520001F073F92B689A78D107FCD495
:104F00005C6238BD134BF0B51B6899035A029B01D4
:104F1000C90ED20E5B0F1F2900D105211F2A00D117
:104F20001D22072B00D1032304688E01278D0A4917
:104F30001F2539403143218501682A400C8DAC433F
:104F400022430A8502681903108D044B03400B436A
:104F50001385F0BD246080003FF8FFFFFF8FFFFF47
:104F6000EFF3108303600123436072B67047036858
:104F7000002B02D162B6BFF36F8F704737B505695A
:104F8000041C6846002D12D1FFF7EAFF019B013B8C
:104F900003D3621DD57FEDB2F9E768460193FFF7B1
:104FA000E6FF0020854217D0206AE36913E0FFF78F
:104FB000D7FF019B0025013B04D3221C3432157816
:104FC000EDB2F8E768460193FFF7D1FF0020854274
:104FD00002D0206BE36AC01A3EBD0000436810B5E2
:104FE0001A68037A01215B01D318FF339A7A0A43C6
:104FF0009A72037A42685B01D318C2689C68910474
:105000000B4A090922400A439A60037A42685B010D
:10501000D3189A684021920B92039A6043681A68E9
:10502000037A08335B01D3181A790A431A7110BD49
:10503000FF3F00F0F7B50569041C0E1C171C6846FD
:10504000002D1FD1FFF78CFF019B013B5A1C06D09E
:10505000621DD17F5A1E00293AD0131CF6E768461C
:105060000193FFF784FF0025E369BD4235D0226A32
:10507000934232D25A1CE261A269D3181B7873554D
:105080000135F1E7FFF76CFF019B013B5A1C08D08B
:10509000221C343215785A1EEDB2002D18D0131C84
:1050A000F4E768460193FFF762FF0025E36ABD421B
:1050B00026D0226B934241D322E0621D0021D1779A
:1050C00030321678581E8E4214D1031C5A1CF4D16B
:1050D00068460193FFF74BFF38E0226A934235D1CF
:1050E0000023E361012323616846FFF739FF019B39
:1050F000013BEBE71170201C0193FFF76FFFF6E710
:10510000226B934222D10023E36223616846FFF7BA
:1051100027FF019B013B5A1CDAD0221C34320021AC
:10512000117001321678581E8E4201D1031CF2E72D
:105130001170201C0193FFF751FFEAE75A1CE2624D
:10514000A26AD3181B7873550135AFE7281CFEBD42
:1051500037B54368027A1B68083252019A18041C5A
:10516000D0790123FF21184255D0D371A068656919
:1051700062680140002D1FD14901521891688904CD
:10518000890C2162216A002942D06361A36A6846C2
:105190005360FFF7E5FE019B013B5D1C34D0621DAF
:1051A0000120D0772F3211785D1EC9B21218002964
:1051B00015D111702B1CF0E74B01D3189A6892049B
:1051C000920C2263226B002A22D000226261A26923
:1051D00068465A60FFF7C4FE019B013B12E0019351
:1051E00010706846FFF7C3FE15E0221C3432012020
:1051F0001070621DD17F5D1EC9B230320029EED120
:1052000011702B1C5D1CF0D168460193FFF7AFFEB7
:10521000201CFFF7E3FE37BD37B500236C46E37172
:105220000734201C0D1C00F08DFE2B681818286018
:1052300000F030FF211C00F0E7FE2B6818182860F2
:1052400020783EBD03290BD10D4BB2221B685200C2
:10525000985C8021494201439954022168220CE064
:1052600001290CD1064B92221B685200985C8021C8
:1052700049420143995402212822FF329954704730
:105280007807002038B5304B00240121051C1F2071
:105290001C70FFF7D5F91F200121FFF72BFA2B4BCC
:1052A0001E2001211C70FFF7CBF91E200121FFF702
:1052B00021FA274B2021DA6901200A43DA61254BC4
:1052C00006241A7802431A70234B0F22197891434F
:1052D000197019782143197020490C7820430870FF
:1052E00019780A401A701A7860210A431A701C4B08
:1052F0001C4A5A805A78D209FCD11B48FEF7AEFFEF
:105300001A4C201CFFF7EAFD201CFFF7FBFD236869
:105310007F2219780A401A701A7804210A431A70F9
:105320001A890C218A431A81C121114A89005058D7
:105330000002000A5050802111601A7802210A43AD
:105340001A7001232B7038BD8C05002074070020D3
:1053500000040040584400413C440041594400418D
:10536000000C004006400000D15D000078070020DE
:1053700000E100E00078002810D0094B01211B68F3
:105380001A898A431A811A8B08210A431A831A8BB5
:1053900004210A431A83034B00221A607047C04657
:1053A000780700207C0800200F4B9A69920B92032B
:1053B0009A611B680222FF331A7298798022524246
:1053C00002439A711A7A9007FCD5084B081C997A07
:1053D0007F221040914301439972997A8022524270
:1053E0000A439A727047C046780700200050004177
:1053F00010B50B790C1C002B0BD1081C00F0B0FD74
:10540000002804D1094B9A69920B92039A610120FA
:105410000BE000F03FFE211C00F02AFE0028F6D130
:10542000024B9A69920B92039A6110BD7807002093
:10543000F8B50D1C832A16D1CAB242495301CB18C4
:105440009C694148AD012040C024A40520439861D7
:105450003E48083245195D610B685201D15C7020ED
:105460008143402065E0022A45D1382000F01FFD2D
:10547000374B344F8026036076000023421D0362C1
:1054800003614361C36147608560C660D3772F3293
:10549000041CC36203631370301C537000F08CFE55
:1054A000A061301C00F088FEFF232A1C1A40520124
:1054B000A062BF18B968244A07260A40C02189059E
:1054C0000A43BA60A168626819401268083149014C
:1054D000885CAD00B043032630438854A1686268FD
:1054E0000B405B01A169D3185960201CFFF776FDC2
:1054F000184BEC5025E0822A1ED1CAB21149530143
:10550000CB189C691048AD012040C024A40520435D
:1055100098610E48083245195D610B68520199186F
:105520000C798020404220430871D15C7020814377
:1055300030200143D15404E0002A02D1081CFFF7B7
:105540008DFCF8BD78070020FFFFFF8FCC03002003
:10555000D86700005007002038B5051C0124064B11
:10556000A200D258002A06D0211C281C0134FFF7C3
:105570005FFFE4B2F3E738BD1000002008B5084B28
:105580008A00D058002803D003689B68984706E03B
:10559000C9B2044B4901591888688004800C08BDC1
:1055A000500700207807002010B50C1CFFF7E6FF1D
:1055B00000280CD0064BE1B21B680831490159188C
:1055C0004A7980235B4213434B710223CB7110BD98
:1055D0007807002070B5CAB2134B144854018901F2
:1055E0005918031959609D681149083229408025CE
:1055F000AD022943996099684026890B8903996017
:105600000368510159180D7935430D71510159182D
:1056100089794D06FAD551015918C979CD07FAD5BE
:105620000419A068C0B270BD900500207807002062
:10563000FF3F00F038B50C4B141C1B680D1CFF33EA
:105640005A7940210A435A710021FFF7C3FFA04253
:1056500000D9201C0023A34204D0044A9A5CEA54D7
:105660000133F8E738BDC0467807002090050020D8
:1056700010B5C9B20C48490143189A689204920CBB
:105680003F2A08D9141C9A68403CA404920BA40C2D
:105690009203224302E09A68920B92039A604118A7
:1056A0008868C0B210BDC04678070020F0B51C1C49
:1056B0002F4B85B01B68061C0D1C0292002B51D08D
:1056C0002C4F3978C9B2002902D11E20FFF712F8F9
:1056D00064233B70284BAA00D058002805D00368EB
:1056E00002995B68221C984740E0301C291CFFF798
:1056F00045FFA04204D2301C291CFFF73FFF041CC9
:10570000291C301CFFF7B4FF1C4FE9B24A0101917C
:10571000396803928B18FF335A7A01210A431849DA
:105720005A72AB01C9180298221C00F04FFD002CE0
:105730001BD0301C291CFFF721FF002815D1019B2D
:105740003A6808335B01D318197940200143197175
:105750000121D97103995318FF339A7A01210A4321
:105760009A7202E00120404200E0201C05B0F0BD2A
:105770007C080020740700205007002078070020D4
:105780009005002013B56C460734221C0123FFF757
:105790008DFF012801D1207801E00120404216BD93
:1057A000F0B51C1C3F4B85B01B680E1C0292002BF1
:1057B0006AD08023DB019C4266D83B4D2978C9B270
:1057C000002902D11F20FEF795FF642300222B70D1
:1057D0000092002C56D0354DF7B22B6801933B1C3C
:1057E0000833019A5B01D3189B79DB091AD0304B3F
:1057F0003049186800F06AFC2F4B1721584300F01D
:1058000065FC3B1C0833019A5B01D318DB799A07CE
:1058100008D42A4B9A5D002A38D1421E002835D080
:10582000101CEEE7254B00229A55251E3F2D00D96E
:105830003F25234AB301D318181C02992A1C03934D
:1058400000F0C4FC194A7B01D318039AA9045A61D9
:105850009A69890C920B92030A439A613B1C019A44
:1058600008335B01D3180222DA715979802252423F
:105870000A435A71009B029A5B1952190093641BE8
:105880000292A6E700980BE0012008E001229A5559
:105890007B01ED18AB69101C9B0B9B03AB61404275
:1058A00005B0F0BD7C0800208C05002078070020A2
:1058B0000000002040420F0070110100C4030020CE
:1058C000CC03002070B50E4D1C1C8B01ED18281C5C
:1058D0000E1C111C221C00F079FCF6B2094976015D
:1058E00089194D618A69084B201C13408B618B69B3
:1058F000A2049B0B920C9B0313438B6170BDC046AB
:10590000CC03002078070020FF3F00F0F7B5114BD3
:1059100001901B780F1C141C002B19D10E4B1E7804
:10592000002E01D1151C08E00C4D0D482E88801961
:10593000361900F04BFC2E800AE0002D08D0BA1971
:105940002B1C01980021FFF7BDFF36182D1AF4E734
:10595000201CFEBD6E0700206C070020C203002043
:10596000C1020020F8B50E1C00AF151E012D28D96C
:10597000D31DDB08DB006A46D21A9546081C00F0EE
:105980009DFC01306C4640000323207063700222AE
:10599000AA420ED23378002B0BD0511CC9B201366B
:1059A000A354A94204D0002302326354D2B2EFE7D9
:1059B0002A1C0548211CFFF7A9FF431E9841C0B2CD
:1059C00000E00020BD46F8BD6F07002008B5044B7D
:1059D00000221A70034B04491A88FFF797FF08BD8D
:1059E0006C070020C2030020C1020020F0B5204A4D
:1059F00087B001230026009102A91370051C0296AE
:105A0000FFF70AFC03AC092701903A1C201C311C4B
:105A100000F0E5FB02236370A023E371FA232372F5
:105A2000029B0122DB196380019B62712371104A82
:105A3000009B27701670BB4205D1281C211C1A1C24
:105A4000FFF764FF11E00B4B01221A700A4B211C77
:105A50003A1C281C1E800296FFF758FF281C02A93A
:105A6000FFF7DAFB281CFFF7B1FF012007B0F0BDFC
:105A70006E0700206C070020C203002070B5CE78AE
:105A800092B0051C0C1C022E08D1C9882D48FFF7C6
:105A9000ADFF031C581E8341D8B251E000F0FAFA62
:105AA000211C00F0C6FA002803D0C3171B1AD80F18
:105AB00046E0012E04D1E2882349112A3BD837E081
:105AC000032E3DD1A278002A05D12049E2880B7827
:105AD00093422DD82FE0022A03D1A279281C1C4919
:105AE00004E0012A05D1A2791A49281CFFF73AFFE0
:105AF00026E0032A24D1184B01A91868FFF7A0F962
:105B0000164B03A91868FFF79BF9154B05A91868F0
:105B1000FFF796F9134B07A91868FFF791F900F002
:105B2000B9FA09A900F095FAA279281C01A9DDE7C4
:105B3000D2B2002A00D10A78281CFFF7E7FE012024
:105B400012B070BD6F070020F4670000F06700001E
:105B500006680000E86700000CA0800040A08000FC
:105B600044A0800048A0800073B5051C48780C1C38
:105B70000B2878D800F0A0FA081C7728773E430657
:105B8000474B686F00206FE0097801AA002903D114
:105B900011705170281C09E0002313705370334BAF
:105BA0001B78012B00D11370281C002102234FE029
:105BB0008A780023012A04D101AA137053702C4B58
:105BC000EEE72A4A137049E08E78012E07D1284B60
:105BD00001AA00211E701170281C331C38E0002E11
:105BE00008D1224A01231370224A9169890B890343
:105BF000916138E0A178281CFFF7D6FB33E0281C20
:105C0000FFF73CFF30E0281C00211B4A1FE00A7808
:105C10000020D30628D1281CFFF79EFCA278154946
:105C2000154B02241A600A682A23FF33D05C2043F4
:105C3000D0544A20FF30145C01231C4314548A6959
:105C4000920B92038A610EE00C4A281C002101236A
:105C5000FFF738FE07E08A78084B1A60054B9A690F
:105C6000920B92039A61012076BDC046C0020020CB
:105C70006D070020780700207C08002070070020B6
:105C8000F8B54B4B071C1C78002C00D08EE0494D1A
:105C90002868838B19070DD5201CFFF7DFF82B68C8
:105CA00010201A1CFF32917A01439172424A14600B
:105CB00008229A832B689A8B50071FD504229A8357
:105CC0003E4B1A78002A0AD01A78013AD2B21A70DA
:105CD0001B78002B03D11F200121FEF70BFD384B51
:105CE0001A78002A0AD01A78013AD2B21A701B78B0
:105CF000002B03D11E200121FEF7FCFC2B68FF3393
:105D00001A7AD10626D510221A725A7940210A43EE
:105D10002C495A710A786023381C1A4202D1FFF7C5
:105D200023FF01E0FFF764FB002806D02B688022E8
:105D3000FF33997952420A4301E0234B20229A71A2
:105D40002B68FF331A7A500604D540221A72597A0A
:105D50000A435A722968FE230E8C00241E40E1B2C9
:105D6000002E23D0321C012322411A4216D0221CBD
:105D70002868083252018218D079184203D1D279AA
:105D8000DA401A4207D0114BA200D058002809D09F
:105D900003681B6898470123A3409E430134092CE4
:105DA000DDD103E0381CFFF74DFAF4E7F8BDC0463B
:105DB0006C070020780700207C0800208C0500205C
:105DC0007407002090050020FF500041500700207C
:105DD00008B50248FFF754FF08BDC0466F07002012
:105DE000014A024B1A6070470050004178070020BA
:105DF000F7B58A18061C0D1C01920C1C019B671B31
:105E00009C4207D0336821781B68301C98470134C6
:105E10000028F3D1381CFEBD10B500214022041C1F
:105E200000F0DDF90023201C2364636410BD026CC4
:105E300010B53F23541C2340446CA34201D081542D
:105E4000036410BD0023036443647047436C026C19
:105E5000934206D0C25C3F2101330B404364101CC7
:105E600001E0012040427047026C436CD01A00D51B
:105E700040307047036C406C834202DBC01A3F30F5
:105E800001E0C01A01387047436C026C934201D0A4
:105E9000C05C01E0012040427047026C3F230132A8
:105EA0001A40436CD01A43425841C0B2704708B5FB
:105EB00000F082F908BD3F20704713B502686B46B9
:105EC000D97107335468191C0122A04716BD08B5C3
:105ED00000690221FFF752FB08BD08B500690321E4
:105EE000FFF762FB08BD38B50D1C041C131C0069CC
:105EF00003212A1CFFF754FC002801D10123636011
:105F000038BD000010B5054C23685A1C04D1036845
:105F10005B6998472060031C181C10BD8800002096
:105F2000074A08B51368591C04D001214942116081
:105F3000181C03E000690221FFF724FC08BDC046DD
:105F40008800002008B50378034902330370422219
:105F50000248FFF7DBFC08BD440000206F0700206B
:105F600010B50178031C42780020A12908D1212A0C
:105F70002FD1184818490722FFF7C8FC012028E054
:105F8000212926D1202A05D1134907221148FFF7DC
:105F900051FB04E0222A10D19A780F4BDA710E4B94
:105FA00096221968D200914210D1DC7901231C405D
:105FB0000CD1FA20FEF730FC0AE0232A09D1DA7866
:105FC0009B7812021A43054B1A6002E0FEF72AFC86
:105FD000002010BD6F070020380000204000002086
:105FE000064BFA21890099600549002208311960A1
:105FF00004495A6019611A767047C046800800202B
:10600000186800006F07002070B544680E1C00255A
:10601000002C09D02368201C5B68311C984700289D
:1060200004DB2D18E468F3E7281C01E0012040425E
:1060300070BD38B544680D1C002C08D02368201CA6
:106040009B68291C9847002802D1E468F4E7201CCB
:1060500038BD38B544680D1C002C07D02368201CBF
:10606000291CDB689847E4682D18F5E72C7038BDCB
:1060700038B544680D1C002C08D02368201C1B6810
:10608000291C9847002803D1E468F4E7201C00E0AD
:10609000012038BD064B0122196810B51140054892
:1060A00005D1022404700424447041601A6010BDBC
:1060B000A40800209C08002002B471464908490049
:1060C000095C49008E4402BC7047C046002934D0A8
:1060D0000123002210B488422CD301242407A142BA
:1060E00004D2814202D209011B01F8E7E400A14277
:1060F00004D2814202D249005B00F8E7884201D312
:10610000401A1A434C08A04202D3001B5C082243E9
:106110008C08A04202D3001B9C082243CC08A0425A
:1061200002D3001BDC082243002803D01B0901D046
:106130000909E3E7101C10BC7047002801D00020BB
:10614000C04307B4024802A14018029003BDC046F4
:10615000190000000029F0D003B5FFF7B9FF0EBC0D
:106160004243891A1847C0467047C04670B50E4B67
:106170000E4D0024ED1AAD101E1CAC4204D0A3003D
:10618000F35898470134F8E700F0BAF8084B094D86
:106190000024ED1AAD101E1CAC4204D0A300F3582D
:1061A00098470134F8E770BDF0000020F0000020AF
:1061B000F00000200001002008B5034B011C186806
:1061C00000F016F808BDC046EC00002010B5002312
:1061D000934203D0CC5CC4540133F9E710BD031CD7
:1061E0008218934202D019700133FAE77047000019
:1061F00070B50323CD1C9D430835061C0C2D01D220
:106200000C2501E0002D3FDB8D423DD3204B1C6867
:106210001A1C211C002913D00868431B0DD40B2B1A
:1062200002D90B60CC181EE08C4202D16368136067
:106230001AE0486860600C1C16E00C1C4968E9E72D
:10624000144C2068002803D1301C00F025F8206091
:10625000301C291C00F020F8431C15D0C41C03235B
:106260009C4384420AD12560201C0B300722231D49
:106270009043C31A0BD05A42E25008E0211A301C56
:1062800000F00AF80130EED10C233360002070BD1D
:10629000AC080020A808002038B5074C0023051CD6
:1062A000081C236000F012F8431C03D12368002B64
:1062B00000D02B6038BDC046B40800200023C25C6B
:1062C0000133002AFBD1581E70470000094A1368A9
:1062D000002B0CD018186946884202D81060181C90
:1062E0007047054B0C2201201A604042F8E7034B2F
:1062F0001360EFE7B0080020B4080020B8080020C1
:10630000F8B5C046F8BC08BC9E467047F8B5C04614
:10631000F8BC08BC9E467047000000000B0000005F
:106320000200000004000000FF00FFFFFFFF0B0061
:10633000000000000A00000002000000040000004D
:10634000FF00FFFFFFFF0A00000000000800000040
:10635000040000001C000000FF0000000000FF001F
:106360000000000009000000040000001C00000004
:10637000FF00010001000900000000000E00000005
:10638000040000001C000000FF00000300030E00DA
:10639000000000000F000000040000001C000000CE
:1063A000FF00010301030F000000000014000000C3
:1063B000050000001C000000FF00020002000400B5
:1063C0000000000015000000050000001C00000097
:1063D000FF000300030005000000000006000000AD
:1063E000040000001C000000FF0000010001060086
:1063F0000000000007000000040000001C00000076
:10640000FF00010101010700000000001200000070
:10641000040000001C000000FF0000030003020055
:106420000000000010000000040000001C0000003C
:10643000FF00000200020000000000001300000046
:10644000040000001C000000FF0001030103030022
:106450000000000011000000040000000C0000001B
:10646000FF000102FFFF0100FF000000000000002C
:10647000FF00000000000000FF00FFFFFFFFFF0023
:106480000000000003000000010000000200000006
:10649000FF00FFFFFFFFFF000000000016000000EC
:1064A0000200000004000000FF00FFFFFFFF0600E5
:1064B00000000000170000000200000004000000BF
:1064C000FF00FFFFFFFF0700000000000C000000BE
:1064D0000300000004000000FF00FFFFFFFF0C00AE
:1064E000FF00000000000000FF00000000000000AE
:1064F000FF00FFFFFFFFFF00010000000B00000096
:106500000300000004000000FF00FFFFFFFF0B007E
:10651000010000000A000000030000000400000069
:10652000FF00FFFFFFFF0A00FF0000000000000067
:10653000FF00000000000000FF00FFFFFFFFFF0062
:10654000FF00000000000000FF000000000000004D
:10655000FF00FFFFFFFFFF0000000000020000003F
:1065600001000000020000000000FFFFFFFF02002A
:10657000010000000800000001000000020000000F
:106580000200FFFFFFFF08000100000009000000FB
:1065900001000000020000000300FFFFFFFF0900F0
:1065A00000000000040000000100000002000000E4
:1065B0000400FFFFFFFF04000000000005000000D2
:1065C00001000000020000000500FFFFFFFF0500C2
:1065D00001000000020000000100000002000000B5
:1065E0000A00FFFFFFFF020001000000030000009F
:1065F0000B00000004000000FF00FFFFFFFFFF0092
:10660000000000001B0000000B0000000400000060
:10661000FF00FFFFFFFFFF00000000001C00000064
:106620000600000000000000FF00FFFFFFFFFF006A
:10663000000000001800000006000000000000003C
:10664000FF00FFFFFFFFFF00000000001900000037
:106650000600000000000000FF00FFFFFFFFFF003A
:106660000100000016000000030000000000000010
:10667000FF00FFFFFFFFFF00010000001700000008
:106680000300000000000000FF00FFFFFFFFFF000D
:1066900000000000160000000200000000000000E2
:1066A000FF00FFFFFFFFFF000000000017000000D9
:1066B0000200000000000000FF00FFFFFFFFFF00DE
:1066C00000000000130000000200000000000000B5
:1066D000FF00FFFFFFFFFF000000000010000000B0
:1066E0000200000000000000FF00FFFFFFFFFF00AE
:1066F0000000000012000000020000000000000086
:10670000FF00FFFFFFFFFF0000000000110000007E
:106710000200000000000000FF00FFFFFFFFFF007D
:10672000000000000D000000040000000C0000004C
:10673000FF000100FFFF0D00000000001500000039
:10674000050000000C000000FF000300FFFFFF0039
:106750000000000006000000040000000C00000023
:10676000FF000001FFFFFF00000000000700000025
:10677000040000000C000000FF000101FFFFFF000B
:106780000000000002000000010000000200000004
:106790001400FFFFFFFF02000000000000000000E7
:1067A0005B4B0000F15D0000134B0000FB4A000052
:1067B000F14A00001D4B0000514B0000C54A00008B
:1067C000094D0000D54A0000C14A00000000000049
:1067D0000000000000000000515100003550000092
:1067E0007D4F000000000000556E6B6E6F776E00ED
:1067F0000403090412010002EF020140032A4F8042
:1068000000010102030141726475696E6F204D3011
:106810002050726F00000000000000000000000027
:10682000BB5E0000E75E0000B75E0000DB5E0000BC
:10683000CF5E0000215F0000055F00000000000047
:0868400043000000000000000D
:1068480040420F000A0000000A000000FFFFFFFF9F
:106858000000000083000000020000008200000029
:106868000000000000000000000000000000000020
:10687800000000000000000000C201000000080045
:10688800FFFFFFFF080B00020202000009040000DE
:106898000102020000052400100104240206052458
:1068A80006000105240101010705810310001009F4
:1068B800040100020A000000070502024000000768
:1068C8000583024000000000FFFFFFFF00000000FA
:1068D80000000000000000000000000000000000B0
:1068E80000000000000000000000000040680000F8
:1068F8000000000000000000000000000000000090
:10690800000000000000000000000000000000007F
:10691800000000000000000000000000000000006F
:106928000000000000000000000000008C000020B3
:10693800DD4000004D410000E15D0000E15F000026
:08694800B54000000000000052
:04000003000041F9BF
:00000001FF
